:020000040000fa
:080000000002040000000000f2
:020000040000fa
:04000800621c000076
:020000040000fa
:04000c00621c000072
:020000040000fa
:04001000621c00006e
:020000040000fa
:04001400621c00006a
:020000040000fa
:04001800621c000066
:020000040000fa
:04001c00621c000062
:020000040000fa
:04002000621c00005e
:020000040000fa
:04002400621c00005a
:020000040000fa
:04002800621c000056
:020000040000fa
:04002c00d8020000f6
:020000040000fa
:04003000621c00004e
:020000040000fa
:04003400ec79000063
:020000040000fa
:04003800621c000046
:020000040000fa
:04003c00e8020000d6
:020000040000fa
:04004000621c00003e
:020000040000fa
:040044008e0e00001c
:020000040000fa
:04004800a60e000000
:020000040000fa
:04004c00621c000032
:020000040000fa
:040050006e08000036
:020000040000fa
:04005400421800004e
:020000040000fa
:04005800621c000026
:020000040000fa
:04005c00621c000022
:020000040000fa
:04006000621c00001e
:020000040000fa
:04006400621c00001a
:020000040000fa
:04006800621c000016
:020000040000fa
:04006c00621c000012
:020000040000fa
:04007000621c00000e
:020000040000fa
:04007400621c00000a
:020000040000fa
:04007800621c000006
:020000040000fa
:04007c00621c000002
:020000040000fa
:04008000621c0000fe
:020000040000fa
:04008400621c0000fa
:020000040000fa
:04008800621c0000f6
:020000040000fa
:04008c00621c0000f2
:020000040000fa
:04009000621c0000ee
:020000040000fa
:04009400407a0000ae
:020000040000fa
:04009800be0e000098
:020000040000fa
:04009c00621c0000e2
:020000040000fa
:0400a00036780000ae
:020000040000fa
:0400a400621c0000da
:020000040000fa
:0400a800621c0000d6
:020000040000fa
:0400ac007e0b0000c7
:020000040000fa
:0400b000621c0000ce
:020000040000fa
:0400b400621c0000ca
:020000040000fa
:0400b800621c0000c6
:020000040000fa
:0400bc00f802000046
:020000040000fa
:0400c0000803000031
:020000040000fa
:0400c400180300001d
:020000040000fa
:0400c800621c0000b6
:020000040000fa
:0400cc00621c0000b2
:020000040000fa
:0400d000621c0000ae
:020000040000fa
:0400d400621c0000aa
:020000040000fa
:0400d800621c0000a6
:020000040000fa
:0400dc00621c0000a2
:020000040000fa
:0400e000621c00009e
:020000040000fa
:0400e400621c00009a
:020000040000fa
:0400e800621c000096
:020000040000fa
:0400ec00621c000092
:020000040000fa
:0400f000621c00008e
:020000040000fa
:0400f400621c00008a
:020000040000fa
:0400f800621c000086
:020000040000fa
:0400fc00621c000082
:020000040000fa
:04010000621c00007d
:020000040000fa
:04010400621c000079
:020000040000fa
:04010800621c000075
:020000040000fa
:04010c00621c000071
:020000040000fa
:04011000621c00006d
:020000040000fa
:04011400621c000069
:020000040000fa
:04011800621c000065
:020000040000fa
:04011c00621c000061
:020000040000fa
:04012000621c00005d
:020000040000fa
:04012400621c000059
:020000040000fa
:04012800621c000055
:020000040000fa
:04012c00621c000051
:020000040000fa
:04013000621c00004d
:020000040000fa
:04013400621c000049
:020000040000fa
:04013800621c000045
:020000040000fa
:04013c00621c000041
:020000040000fa
:04014000621c00003d
:020000040000fa
:04014400621c000039
:020000040000fa
:04014800621c000035
:020000040000fa
:04020800621c000074
:020000040000fa
:04020c00621c000070
:020000040000fa
:04021000621c00006c
:020000040000fa
:04021400621c000068
:020000040000fa
:04021800621c000064
:020000040000fa
:04021c00621c000060
:020000040000fa
:04022000621c00005c
:020000040000fa
:04022400621c000058
:020000040000fa
:04022800621c000054
:020000040000fa
:04022c00621c000050
:020000040000fa
:04023000621c00004c
:020000040000fa
:04023400621c000048
:020000040000fa
:04023800621c000044
:020000040000fa
:04023c00621c000040
:020000040000fa
:04024000621c00003c
:020000040000fa
:04024400621c000038
:020000040000fa
:04024800621c000034
:020000040000fa
:04024c00621c000030
:020000040000fa
:04025000621c00002c
:020000040000fa
:04025400621c000028
:020000040000fa
:04025800621c000024
:020000040000fa
:04025c00621c000020
:020000040000fa
:04026000621c00001c
:020000040000fa
:04026400621c000018
:020000040000fa
:04026800621c000014
:020000040000fa
:04026c00621c000010
:020000040000fa
:04027000621c00000c
:020000040000fa
:04027400621c000008
:020000040000fa
:04027800621c000004
:020000040000fa
:04027c00621c000000
:020000040000fa
:04028000621c0000fc
:020000040000fa
:04028400621c0000f8
:020000040000fa
:04028800621c0000f4
:020000040000fa
:04028c00621c0000f0
:020000040000fa
:04029000621c0000ec
:020000040000fa
:04029400621c0000e8
:020000040000fa
:04029800621c0000e4
:020000040000fa
:04029c00621c0000e0
:020000040000fa
:0402a000621c0000dc
:020000040000fa
:0402a400621c0000d8
:020000040000fa
:0402a800621c0000d4
:020000040000fa
:0402ac00621c0000d0
:020000040000fa
:0402b000621c0000cc
:020000040000fa
:0402b400621c0000c8
:020000040000fa
:0402b800621c0000c4
:020000040000fa
:0402bc00621c0000c0
:020000040000fa
:0402c000621c0000bc
:020000040000fa
:0402c400621c0000b8
:020000040000fa
:0402c800621c0000b4
:020000040000fa
:0402cc00621c0000b0
:020000040000fa
:0402d000621c0000ac
:020000040000fa
:0402d400621c0000a8
:020000040000fa
:0402d800621c0000a4
:020000040000fa
:0402dc00621c0000a0
:020000040000fa
:0402e000621c00009c
:020000040000fa
:0402e400621c000098
:020000040000fa
:0402e800621c000094
:020000040000fa
:0402ec00621c000090
:020000040000fa
:0402f000621c00008c
:020000040000fa
:0402f400621c000088
:020000040000fa
:0402f800621c000084
:020000040000fa
:0402fc00621c000080
:020000040000fa
:04030000621c00007b
:020000040000fa
:04030400621c000077
:020000040000fa
:04030800621c000073
:020000040000fa
:04030c00621c00006f
:020000040000fa
:04031000621c00006b
:020000040000fa
:04031400621c000067
:020000040000fa
:04031800621c000063
:020000040000fa
:04031c00621c00005f
:020000040000fa
:04032000621c00005b
:020000040000fa
:04032400621c000057
:020000040000fa
:04032800621c000053
:020000040000fa
:04032c00621c00004f
:020000040000fa
:04033000621c00004b
:020000040000fa
:04033400621c000047
:020000040000fa
:04033800621c000043
:020000040000fa
:04033c00621c00003f
:020000040000fa
:04034000621c00003b
:020000040000fa
:04034400621c000037
:020000040000fa
:04034800621c000033
:020000040000fa
:10040000af1121000e7f22000e01880000000000c5
:10041000000020000000e000020032000001200087
:100420002002880014000700880d07000000e0008b
:1004300003003a00c0be280001002000020037007f
:100440000000200001002000810f70000100320038
:1004500014000700000020000000e000020032004d
:1004600000000200000000005e7a020000000000b0
:100470000040da000000fe004440a900608b21002b
:100480000000e0000300320000002000a00188000e
:100490004440a800000006008a1f78008b1f7800e7
:1004a0000000060091018800800478000000eb0045
:1004b0001a003700e284440032a0b4009905ba0063
:1004c000e284440032a0b4009906ba00e2844400f9
:1004d00032a0b4000006eb00476fde00fd07b2005b
:1004e000636ce10003003a00ebff07000000eb0043
:1004f0000a003700606ce10004003a00005deb0088
:100500008b05e900fdff3e00040037006168e10053
:10051000010032000086eb000b00070019c7ba008b
:100520001905ba000e04e00003003a000a00e000da
:10053000e0ff3a0000000600fe07b2009e018800be
:100540008a047800f5ff3700395dba008b05e900b1
:100550000c003200295dba008b05e900080032006a
:100560000c00e00003003a00e284440032a0b40032
:10057000f5ff370019ddba008b05e900faff3a00f4
:100580008904e800e184440032a0b40000000600c1
:10059000000000000000000000000000000000005b
:1005a000000000000000000000000000000000004b
:1005b000801f78000000fa008420a90010c0b3005a
:1005c00046e8b7000080fa004f00780000400600bf
:1005d000801f78000000fa0084a0a90010c0b300ba
:1005e00047e8b7000080fa004f007800004006009e
:1005f000801f78000000fa0088a0a90010c0b30096
:1006000048e8b7000080fa004f007800004006007c
:10061000801f78000000fa0088c0a90010c0b30055
:1006200049e8b7000080fa004f007800004006005b
:10063000801f78000000fa0088e0a90010c0b30015
:100640004ae8b7000080fa004f007800004006003a
:100650000400fa00000f7800110798001e0fe9004f
:100660001e00780000407800634060000080fb00be
:10067000630060004500dd00120a8000f1f92f00e0
:100680008100610001007000100a88009e00900047
:10069000e14188000080fa00000006000000fa0036
:1006a0008420a9009420a800e04180000040780048
:1006b000674060000080fb0067006000120a800055
:1006c00081ff2f008100610001007000100a880086
:1006d0004668ef000080fa00000006000000fa0003
:1006e0008420a9009420a900110a800080ff2f0017
:1006f00000806000100a88000080fa0000000600f8
:100700000600fa00008fbe0022079800e3ff0700f2
:100710001e00be00e00f5000e08f580006003a00b7
:100720000000000046c8bf000004a2000004e00072
:10073000fcff3a004a0037002e009000e10f500005
:100740000c003a00720607000000000046c8bf0017
:100750000004a2000004e000040032007806070054
:10076000be0f5000ae8f5800f8ff35006f0607002f
:100770003b0037002e009000e20f50000c003a00c2
:10078000650707000000000046c8bf000004a20083
:100790000004e000040032007a070700be0f50009a
:1007a000ae8f5800f8ff35006b0707002c003700ac
:1007b0002e009000e30f50000c003a003a080700aa
:1007c0000000000046c8bf000004a2000004e000d2
:1007d0000400320041080700be0f5000ae8f5800e1
:1007e000f8ff3500380807001d0037002e00900084
:1007f000e40f50000c003a002e0907000000000032
:1008000046c8bf000004a2000004e000040032005b
:1008100042090700be0f5000ae8f5800f8ff3500a8
:10082000330907000e0037002e009000e50f50003e
:100830000b003a00020a07000000000046c8bf0093
:100840000004a2000004e00004003200080a0700cf
:10085000be0f5000ae8f5800f8ff3500ff090700ab
:100860009eff07000080fa00000006000400fa0066
:10087000000f7800110798001e0fe9001e00780095
:1008800000407800634060000080fb00630060006f
:100890004500dd00320a8000f1f92f00810061007f
:1008a00001007000300a88009e009000f14188002d
:1008b0000080fa00000006000000fa0084a0a900f1
:1008c00094a0a800f04180000040780067406000dc
:1008d0000080fb0067006000320a800081ff2f006b
:1008e0008100610001007000300a88004768ef0055
:1008f0000080fa00000006000000fa0084a0a900b1
:1009000094a0a900310a800080ff2f0000806000c1
:10091000300a88000080fa00000006000600fa0095
:10092000008fbe0022079800e3ff07001e00be00f4
:10093000e00f5000e08f580006003a000000000071
:1009400047c8bf000004a2000004e000fcff3a001a
:100950004a0037002e009000e10f50000c003a00d2
:10096000eb0507000000000047c8bf000004a2001c
:100970000004e00004003200f1050700be0f500043
:10098000ae8f5800f8ff3500e80507003b00370040
:100990002e009000e20f50000c003a00de06070027
:1009a0000000000047c8bf000004a2000004e000ef
:1009b00004003200f3060700be0f5000ae8f58004f
:1009c000f8ff3500e40607002c0037002e009000e9
:1009d000e30f50000c003a00b307070000000000ce
:1009e00047c8bf000004a2000004e0000400320079
:1009f000ba070700be0f5000ae8f5800f8ff350051
:100a0000b10707001d0037002e009000e40f5000d2
:100a10000c003a00a70807000000000047c8bf000c
:100a20000004a2000004e00004003200bb0807003c
:100a3000be0f5000ae8f5800f8ff3500ac0807001d
:100a40000e0037002e009000e50f50000b003a001a
:100a50007b0907000000000047c8bf000004a20097
:100a60000004e0000400320081090700be0f5000be
:100a7000ae8f5800f8ff3500780907009eff070089
:100a80000080fa00000006000400fa00000f780061
:100a9000110798001e0fe9001e0078000040780042
:100aa000634060000080fb00630060004500dd00e3
:100ab000520a8000f1f92f008100610001007000ee
:100ac000500a88009e009000014288000080fa00d1
:100ad000000006000000fa0088a0a90098a0a80065
:100ae0000042800000407800674060000080fb000a
:100af00067006000520a800081ff2f0081006100c2
:100b000001007000500a88004868ef000080fa0079
:100b1000000006000000fa0088a0a90098a0a90023
:100b2000510a800080ff2f0000806000500a88007a
:100b30000080fa00000006000600fa00008fbe00e8
:100b400022079800e3ff07001e00be00e00f5000e0
:100b5000e08f580006003a000000000048c8bf00bf
:100b60000004a2000004e000fcff3a004a00370045
:100b70002e009000e10f50000c003a0064050700c1
:100b80000000000048c8bf000004a2000004e0000c
:100b9000040032006a050700be0f5000ae8f5800f7
:100ba000f8ff3500610507003b0037002e0090007c
:100bb000e20f50000c003a0057060700000000004a
:100bc00048c8bf000004a2000004e0000400320096
:100bd0006c060700be0f5000ae8f5800f8ff3500be
:100be0005d0607002c0037002e009000e30f500038
:100bf0000c003a002c0707000000000048c8bf00a6
:100c00000004a2000004e0000400320033070700e3
:100c1000be0f5000ae8f5800f8ff35002a070700be
:100c20001d0037002e009000e40f50000c003a0029
:100c3000200807000000000048c8bf000004a20010
:100c40000004e0000400320034080700be0f50002a
:100c5000ae8f5800f8ff3500250807000e0037005a
:100c60002e009000e50f50000b003a00f40807003a
:100c70000000000048c8bf000004a2000004e0001b
:100c800004003200fa080700be0f5000ae8f580073
:100c9000f8ff3500f10807009eff07000080fa000a
:100ca000000006000400fa00000f78001107980009
:100cb0001e0fe9001e0078000040780063406000cd
:100cc0000080fb00630060004500dd00720a8000c8
:100cd000f1f92f008100610001007000700a8800a6
:100ce0009e009000114288004968ef000080fa00e1
:100cf000000006000000fa0088c0a90098c0a80003
:100d00001042800000407800674060000080fb00d7
:100d100067006000720a800081ff2f00810061007f
:100d200001007000700a88000080fa0000000600d0
:100d30000000fa0088c0a90098c0a900710a8000cc
:100d400080ff2f0000806000700a88000080fa0099
:100d5000000006000600fa00008fbe00220798007f
:100d6000e4ff07001e00be00e00f5000e08f5800b7
:100d700006003a000000000049c8bf000004a200bd
:100d80000004e000fcff3a004a0037002e0090000b
:100d9000e10f50000c003a00dd04070000000000e5
:100da00049c8bf000004a2000004e00004003200b3
:100db000e3040700be0f5000ae8f5800f8ff350067
:100dc000da0407003b0037002e009000e20f5000cd
:100dd0000c003a00d00507000000000049c8bf0021
:100de0000004a2000004e00004003200e505070052
:100df000be0f5000ae8f5800f8ff3500d605070033
:100e00002c0037002e009000e30f50000c003a0039
:100e1000a50607000000000049c8bf000004a200aa
:100e20000004e00004003200ac060700be0f5000d2
:100e3000ae8f5800f8ff3500a30607001d003700ed
:100e40002e009000e40f50000c003a0099070700b4
:100e50000000000049c8bf000004a2000004e00038
:100e600004003200ad070700be0f5000ae8f5800df
:100e7000f8ff35009e0707000e0037002e00900097
:100e8000e50f50000b003a006d080700000000005d
:100e900049c8bf000004a2000004e00004003200c2
:100ea00073080700be0f5000ae8f5800f8ff3500e2
:100eb0006a0807009eff07000080fa000000060095
:100ec0000400fa00000f7800110798001e0fe900d7
:100ed0001e00780000407800634060000080fb0046
:100ee000630060004500dd00920a8000f1f92f00e8
:100ef0008100610001007000900a88009e0090004f
:100f0000214288000080fa00000006000000fa007c
:100f100088e0a90098e0a800204280000040780006
:100f2000674060000080fb0067006000920a80005c
:100f300081ff2f008100610001007000900a88008d
:100f40004a68ef000080fa00000006000000fa0086
:100f500088e0a90098e0a900910a800080ff2f0096
:100f600000806000900a88000080fa0000000600ff
:100f70000600fa00008fbe0022079800e3ff07007a
:100f80001e00be00e00f5000e08f580006003a003f
:100f9000000000004ac8bf000004a2000004e000f6
:100fa000fcff3a004a0037002e009000e10f50008d
:100fb0000c003a0056040700000000004ac8bf00b9
:100fc0000004a2000004e000040032005c040700fa
:100fd000be0f5000ae8f5800f8ff350053040700d5
:100fe0003b0037002e009000e20f50000c003a004a
:100ff00049050700000000004ac8bf000004a20025
:101000000004e000040032005e050700be0f50003f
:10101000ae8f5800f8ff35004f0507002c00370051
:101020002e009000e30f50000c003a001e0607004f
:10103000000000004ac8bf000004a2000004e00055
:101040000400320025060700be0f5000ae8f580086
:10105000f8ff35001c0607001d0037002e00900029
:10106000e40f50000c003a001207070000000000d7
:101070004ac8bf000004a2000004e00004003200df
:1010800026070700be0f5000ae8f5800f8ff35004e
:10109000170707000e0037002e009000e50f5000e4
:1010a0000b003a00e6070700000000004ac8bf0036
:1010b0000004a2000004e00004003200ec07070076
:1010c000be0f5000ae8f5800f8ff3500e307070051
:1010d0009eff07000080fa00000006003600f800be
:1010e000809fbe00829fbe00849fbe00869fbe0080
:1010f0003400f80000002000a00188000000fa0081
:10110000bffb07008540a9000080fa003400f90009
:101110004f03be004f02be004f01be004f00be0095
:101120003600f900004006000600fa00000f7800c3
:101130001107980042479800534798001e00780016
:10114000e40f50000f003200e40f500003003c0099
:10115000e10f5000070032001b003700f00f500075
:101160000e00320001042000810f500011003200f7
:1011700015003700101280003000b30010128800f4
:101180001300370011128000c0ff2f0000806000a4
:101190000010a000101288000d003700111280000e
:1011a000c0ff2f00008060000000a0001012880027
:1011b0000700370011128000c0ff2f000080600080
:1011c000101288000200370010c0b3006b00370017
:1011d0001e009000e40f500022003200e40f500087
:1011e00007003c00e20f500012003200e20f5000f6
:1011f00016003c00e10f50000a00320036003700b4
:10120000e60f500023003200e60f50001b003500af
:10121000e70f500025003200e80f5000290032008f
:101220002d00370010128000c001b300101288009a
:101230002b0037001112800030fe2f00008060006c
:101240008001b300101288002500370011128000c1
:1012500030fe2f00008060004001b30010128800b3
:101260001f0037001112800030fe2f000080600048
:101270000040a000101288001900370011128000f1
:1012800030fe2f0000806000c000b3001012880004
:10129000130037001112800030fe2f000080600024
:1012a0000030a000101288000d00370011128000dd
:1012b00030fe2f00008060000020a0001012880087
:1012c000070037001112800030fe2f000080600000
:1012d000101288000200370010c0b300270037004a
:1012e0004e409000e14f500017003a004e409000f1
:1012f000614060000080fb00610060004500dd008f
:10130000111280000150a10001007000101288002d
:101310005e409000614060000080fb006100600062
:101320004a00dd001112800001a0a1000100700040
:10133000101288004322a9004302a90040c2a9005c
:1013400041e2a8000c0037004822ef008540a900c8
:101350009540a80041058000007020000100700049
:10136000400588004422ef004322a9004302a9005f
:1013700040c2a90041e2a8000040eb000080fa0052
:10138000000006000600fa00000f78001107980020
:1013900042479800534798001e007800e40f500021
:1013a0000f003200e40f500003003c00e10f50003a
:1013b000070032001b003700f00f50000e00320013
:1013c00001042000810f5000110032001500370089
:1013d000101280003000b300101288001300370094
:1013e00011128000c0ff2f00008060000010a000dc
:1013f000101288000d00370011128000c0ff2f006e
:10140000008060000000a000101288000700370074
:1014100011128000c0ff2f000080600010128800b1
:101420000200370010c0b3006f0037001e009000ac
:10143000e40f500022003200e40f500007003c008f
:10144000e20f500012003200e20f500016003c0084
:10145000e10f50000a00320036003700e60f50005e
:1014600023003200e60f50001b003500e70f50004c
:1014700025003200e80f5000290032002d0037000f
:1014800010128000c001b300101288002b0037003a
:101490001112800030fe2f00008060008001b30038
:1014a00010128800250037001112800030fe2f0036
:1014b000008060004001b300101288001f00370058
:1014c0001112800030fe2f00008060000040a0005c
:1014d00010128800190037001112800030fe2f0012
:1014e00000806000c000b3001012880013003700b5
:1014f0001112800030fe2f00008060000030a0003c
:10150000101288000d0037001112800030fe2f00ed
:10151000008060000020a000101288000700370043
:101520001112800030fe2f00008060001012880031
:101530000200370010c0b3002b0037004e4090006f
:10154000e14f500019003a004e40900061406000a9
:101550000080fb00610060004500dd00111280008a
:101560000150a10001007000101288005e40900040
:10157000614060000080fb00610060004a00dd0007
:101580001112800001a0a10001007000101288005b
:101590004322a9004302a90040c2a90042e2a800d8
:1015a00045e2a80041e2a8000e0037004822ef0003
:1015b0008540a9009540a8004105800000702000ea
:1015c00001007000400588004422ef004322a9007a
:1015d0004302a90040c2a90042e2a80045e2a800d7
:1015e00041e2a8000040eb000080fa000000060085
:1015f0000800fa00100798002107980032079800a9
:101600000000eb00000f78001e0037000000000013
:1016100000128000620060000000e000fcff3a0061
:101620001e007800000040009e00900000804000f6
:1016300010007800401288000000000000128000b6
:10164000620060000000e000fcff3a0000000000c3
:1016500000128000610060000000e000fcff32002a
:101660001e00780000004000ae00900000804000a6
:1016700042128000f10f2000810061000108780013
:101680001e0fe8003e0090009e007800808f500002
:10169000deff39000080fa00000006000200fa00b8
:1016a000000f78000000000000128000620060005f
:1016b0000000e000fcff3a009e0078004112880024
:1016c0000000000000128000620060000000e000e6
:1016d000fcff3a0000000000001280006100600082
:1016e0000000e000fcff320041128000f00f2000fb
:1016f000008060000080fa00000006003600f8005c
:10170000809fbe00829fbe00849fbe00869fbe0059
:101710003400f80000002000a00188000000fa005a
:1017200037fa07008820a9000080fa003400f90089
:101730004f03be004f02be004f01be004f00be006f
:101740003600f900004006000600fa00000f78009d
:101750001107980042479800534798001e007800f0
:10176000e40f50000f003200e40f500003003c0073
:10177000e10f5000070032001b003700f00f50004f
:101780000e00320001042000810f500011003200d1
:1017900015003700101380003000b30010138800cc
:1017a0001300370011138000c0ff2f00008060007d
:1017b0000010a000101388000d00370011138000e6
:1017c000c0ff2f00008060000000a0001013880000
:1017d0000700370011138000c0ff2f000080600059
:1017e000101388000200370010c0b3006b003700f0
:1017f0001e009000e40f500022003200e40f500061
:1018000007003c00e20f500012003200e20f5000cf
:1018100016003c00e10f50000a003200360037008d
:10182000e60f500023003200e60f50001b00350089
:10183000e70f500025003200e80f50002900320069
:101840002d00370010138000c001b3001013880072
:101850002b0037001113800030fe2f000080600045
:101860008001b30010138800250037001113800099
:1018700030fe2f00008060004001b300101388008c
:101880001f0037001113800030fe2f000080600021
:101890000040a000101388001900370011138000c9
:1018a00030fe2f0000806000c000b30010138800dd
:1018b000130037001113800030fe2f0000806000fd
:1018c0000030a000101388000d00370011138000b5
:1018d00030fe2f00008060000020a0001013880060
:1018e000070037001113800030fe2f0000806000d9
:1018f000101388000200370010c0b3002700370023
:101900004e409000e14f500017003a004e409000ca
:10191000614060000080fb00610060004500dd0068
:10192000111380000150a100010070001013880005
:101930005e409000614060000080fb00610060003c
:101940004a00dd001113800001a0a1000100700019
:10195000101388006322a9006302a90060c2a900d5
:1019600061e2a8000c0037006822ef008820a9007f
:101970009820a800a1058000000720000100700049
:10198000a00588006422ef006322a9006302a90079
:1019900060c2a90061e2a8000040eb000080fa00ec
:1019a000000006000600fa00000f780011079800fa
:1019b00042479800534798001e007800e40f5000fb
:1019c0000f003200e40f500003003c00e10f500014
:1019d000070032001b003700f00f50000e003200ed
:1019e00001042000810f5000110032001500370063
:1019f000101380003000b30010138800130037006c
:101a000011138000c0ff2f00008060000010a000b4
:101a1000101388000d00370011138000c0ff2f0045
:101a2000008060000000a00010138800070037004d
:101a300011138000c0ff2f00008060001013880089
:101a40000200370010c0b3006f0037001e00900086
:101a5000e40f500022003200e40f500007003c0069
:101a6000e20f500012003200e20f500016003c005e
:101a7000e10f50000a00320036003700e60f500038
:101a800023003200e60f50001b003500e70f500026
:101a900025003200e80f5000290032002d003700e9
:101aa00010138000c001b300101388002b00370012
:101ab0001113800030fe2f00008060008001b30011
:101ac00010138800250037001113800030fe2f000e
:101ad000008060004001b300101388001f00370031
:101ae0001113800030fe2f00008060000040a00035
:101af00010138800190037001113800030fe2f00ea
:101b000000806000c000b30010138800130037008d
:101b10001113800030fe2f00008060000030a00014
:101b2000101388000d0037001113800030fe2f00c5
:101b3000008060000020a00010138800070037001c
:101b40001113800030fe2f00008060001013880009
:101b50000200370010c0b3002b0037004e40900049
:101b6000e14f500019003a004e4090006140600083
:101b70000080fb00610060004500dd001113800063
:101b80000150a10001007000101388005e40900019
:101b9000614060000080fb00610060004a00dd00e1
:101ba0001113800001a0a100010070001013880033
:101bb0006322a9006302a90060c2a90062e2a80032
:101bc00065e2a80061e2a8000e0037006822ef007d
:101bd0008820a9009820a800a10580000007200007
:101be00001007000a00588006422ef006322a900b4
:101bf0006302a90060c2a90062e2a80065e2a80031
:101c000061e2a8000040eb000080fa00000006003e
:101c10000800fa0010079800210798003207980082
:101c20000000eb00000f78001e00370000000000ed
:101c300000138000620060000000e000fcff3a003a
:101c40001e007800000040009e00900000804000d0
:101c5000100078004013880000000000001380008e
:101c6000620060000000e000fcff3a00000000009d
:101c700000138000610060000000e000fcff320003
:101c80001e00780000004000ae0090000080400080
:101c900042138000f10f20008100610001087800ec
:101ca0001e0fe8003e0090009e007800808f5000dc
:101cb000deff39000080fa00000006000200fa0092
:101cc000000f780000000000001380006200600038
:101cd0000000e000fcff3a009e00780041138800fd
:101ce0000000000000138000620060000000e000bf
:101cf000fcff3a000000000000138000610060005b
:101d00000000e000fcff320041138000f00f2000d3
:101d1000008060000080fa0000000600809fbe0086
:101d20000000fa00604180007141800061004000c5
:101d3000e0804800604188007141880084e0a9008b
:101d40000080fa004f00be0000400600809fbe00e9
:101d50000000fa0080418000914180006100400055
:101d6000e080480080418800914188008500a900fa
:101d70000080fa004f00be0000400600809fbe00b9
:101d80000000fa00c0418000d141800061004000a5
:101d9000e0804800c0418800d14188008780a900c8
:101da0000080fa004f00be00004006000200fa006a
:101db000000f78001e007800cf80de006109b900b6
:101dc00004902000d50320006033b8006f0a07009c
:101dd000843e2000050020006033b800020a07009e
:101de0000000be00613f07000080fa00000006000e
:101df0000200fa00000f78001e007800cf80de009d
:101e00006109b90004902000d50320006033b800b8
:101e10005e0a070004242400f50020006033b800a7
:101e2000f10907000000be00503f07000080fa00e3
:101e3000000006000c00fa00881f78004007980098
:101e4000510798000040220041a724002007980075
:101e5000310798002e019000be0190000000200084
:101e600001f823005807070002002000037824002f
:101e70002d08070018c0b3004e019000de0190004d
:101e8000950707000000e00001003c000044eb0063
:101e90000804e000160032002e019000be01900000
:101ea0000000200001f823004707070018c0b30016
:101eb0004e019000de019000850707000000e00061
:101ec000010035000044eb000804e0000800320087
:101ed0000000200001f82300008fbe0021088000d0
:101ee000f0fc2f0000806000200888007900370097
:101ef0002e019000be01900000002000011024007f
:101f000031070700020020000378240006080700bc
:101f100018c0b3004e019000de0190006e0707006c
:101f20000000e00001003c000044eb000804e00079
:101f3000170032002e019000be019000000020002a
:101f4000011024002007070018c0b3004e019000c4
:101f5000de0190005e0707000000e0000100350090
:101f60000044eb000804e0000900320000002000fb
:101f700001e02300008fbe0021088000f0fc2f004c
:101f8000008060000040a000200888005100370059
:101f90002e019000be0190000000200001282400c6
:101fa000090707000200200003782400de0707006d
:101fb00018c0b3004e019000de01900046070700f4
:101fc0000000e00001003c000044eb000804e000d9
:101fd000170032002e019000be019000000020008a
:101fe00001282400f806070018c0b3004e01900035
:101ff000de019000360707000000e0000100350018
:102000000044eb000804e00009003200000020005a
:1020100001c82300008fbe0021088000f0fc2f00c3
:10202000008060000050a0002008880029003700d0
:102030002e019000be019000000020000138240015
:10204000e10607000200200003782400b60707001d
:1020500018c0b3004e019000de0190001e0707007b
:102060000000e00001003c000044eb000804e00038
:10207000160032002e019000be01900000002000ea
:1020800001382400d006070018c0b3004e019000ac
:10209000de0190000e0707000000e000010035009f
:1020a0000044eb000804e0000800320000002000bb
:1020b00001b82300008fbe0021088000000320002b
:1020c00001007000200888000200370010c0b30033
:1020d0000c0037000021ef002e019000be0190009f
:1020e0004e009000de0090008f0707001e01be002a
:1020f0008d0707001b070700000078001008880004
:102100000040eb004f0478000080fa000000060059
:102110000000fa002828ef002a28ef009460a800a9
:1021200005e1a8000080fa00000006000000fa00a7
:1021300005e1a9009460a9000080fa0000000600f3
:102140000000fa0040418000514180000080fa0008
:10215000000006001200fa00889fbe006007980089
:1021600071079800020f98000040220041a7240048
:1021700020079800310798000e089000cf80de00fd
:10218000130707000001be0000002000010024002a
:10219000990707000004be002e019000be019000c8
:1021a0000000200001f82300870607000001be00a0
:1021b0000800be005c07070018c0b3006e01900065
:1021c000fe019000c40607000000e00001003c0092
:1021d0000044eb000804e000160032002e019000dd
:1021e000be0190000000200001f8230076060700e1
:1021f00018c0b3006e019000fe019000b406070005
:102200000000e000010035000044eb000804e0009d
:10221000080032000000200001f82300008fbe00fb
:1022200081088000f0fc2f0000806000800888009a
:10223000910037000e089000cf80de00e406070012
:102240000001be0000002000010024006a07070012
:102250000004be002e019000be019000000020008e
:1022600001102400580607000001be000800be004f
:102270002d07070018c0b3006e019000fe0190000a
:10228000950607000000e00001003c000044eb0060
:102290000804e000170032002e019000be019000fb
:1022a00000002000011024004706070018c0b300fa
:1022b0006e019000fe019000850607000000e0001e
:1022c000010035000044eb000804e0000900320082
:1022d0000000200001e02300008fbe008108800084
:1022e000f0fc2f00008060000040a0008008880003
:1022f000610037000e089000cf80de00b4060700b2
:102300000001be0000002000010024003a07070081
:102310000004be002e019000be01900000002000cd
:1023200001282400280607000001be000800be00a6
:10233000fd06070018c0b3006e019000fe0190007a
:10234000650607000000e00001003c000044eb00cf
:102350000804e000170032002e019000be0190003a
:1023600000002000012824001706070018c0b30051
:102370006e019000fe019000550607000000e0008d
:10238000010035000044eb000804e00009003200c1
:102390000000200001c82300008fbe0081088000db
:1023a000f0fc2f00008060000050a0008008880032
:1023b000310037000e089000cf80de008406070051
:1023c0000001be0000002000010024000a070700f1
:1023d0000004be002e019000be019000000020000d
:1023e00001382400f80507000001be000800be0007
:1023f000cd06070018c0b3006e019000fe019000ea
:10240000350607000000e00001003c000044eb003e
:102410000804e000160032002e019000be0190007a
:102420000000200001382400e705070018c0b300b1
:102430006e019000fe019000250607000000e000fc
:10244000010035000044eb000804e0000800320001
:102450000000200001b82300008fbe00810880002a
:10246000000320000100700080088800020037008f
:1024700010c0b300250037008e0890000002200035
:10248000808f500015003a001061a8000a21ef006b
:102490000621ef002e019000be0190006e0090001a
:1024a000fe009000a00607001e01be009e06070069
:1024b0002c06070040079800510798004e00900036
:1024c000de0090004008de00000078007008880000
:1024d0004e009000600888000b0037000621ef00d6
:1024e0002e019000be0190006e009000fe00900052
:1024f0008d0607001e01be008b06070019060700a7
:1025000000007800600888000040eb004f04be0027
:102510000080fa00000006000000fa008008800039
:10252000680060000000e000040032003028ef0086
:102530003228ef009500a800040037000621ef00c4
:102540002c28ef002e28ef0094e0a80011e1a8004d
:102550000080fa00000006000000fa0080088000f9
:10256000680060000000e000020032009500a90051
:102570000100370094e0a90011e1a9000080fa00f1
:10258000000006000000fa0080088000680060007b
:102590000000e00003003200804180009141800093
:1025a0000200370060418000714180000080fa0025
:1025b000000006000c00fa00881f78004007980011
:1025c000510798000040220041a7240020079800ee
:1025d0003107980080088000680060000000e0007b
:1025e0000200320010c0b300ac0037002e01900092
:1025f000be0190000000200001f8230072050700d2
:1026000002002000037824004706070018c0b3002a
:102610004e019000de019000af0507000000e000d1
:1026200001003c000044eb000804e000160032000a
:102630002e019000be0190000000200001f8230050
:102640006105070018c0b3004e019000de01900044
:102650009f0507000000e000010035000044eb008a
:102660000804e000080032000000200001f8230008
:10267000008fbe0091088000f0fc2f0000806000f9
:1026800090088800790037002e019000be0190006c
:1026900000002000011024004b050700020020006c
:1026a000037824002006070018c0b3004e019000f4
:1026b000de019000880507000000e00001003c00fa
:1026c0000044eb000804e000170032002e019000e7
:1026d000be01900000002000011024003a05070010
:1026e00018c0b3004e019000de019000780507008d
:1026f0000000e000010035000044eb000804e000a9
:10270000090032000000200001e02300008fbe001d
:1027100091088000f0fc2f00008060000040a000c5
:1027200090088800510037002e019000be019000f3
:1027300000002000012824002305070002002000db
:1027400003782400f805070018c0b3004e0190007c
:10275000de019000600507000000e00001003c0081
:102760000044eb000804e000170032002e01900046
:10277000be0190000000200001282400120507007f
:1027800018c0b3004e019000de0190005005070014
:102790000000e000010035000044eb000804e00008
:1027a000090032000000200001c82300008fbe0095
:1027b00091088000f0fc2f00008060000050a00015
:1027c00090088800290037002e019000be0190007b
:1027d0000000200001382400fb0407000200200054
:1027e00003782400d005070018c0b3004e01900004
:1027f000de019000380507000000e00001003c0009
:102800000044eb000804e000160032002e019000a6
:10281000be0190000000200001382400ea040700f7
:1028200018c0b3004e019000de019000280507009b
:102830000000e000010035000044eb000804e00067
:10284000080032000000200001b82300008fbe0005
:1028500091088000000320000100700090088800ab
:102860000200370010c0b3000c0037000a21ef004f
:102870002e019000be0190004e009000de009000fe
:10288000a90507001e01be00a705070035050700c2
:1028900000007800700888000040eb004f047800ca
:1028a0000080fa00000006000000fa003028ef0067
:1028b0003228ef000a21ef009500a80013e1a800dc
:1028c0000080fa00000006000000fa0013e1a900f1
:1028d0009500a9000080fa00000006000000fa0040
:1028e00080418000914180000080fa0000000600d5
:1028f0001200fa00889fbe006007980071079800d8
:10290000020f98000040220041a7240020079800f1
:10291000310798000e089000cf80de002c050700dc
:102920000001be000000200001002400b2050700e5
:102930000004be002e019000be01900000002000a7
:1029400001f82300a00407000001be000800be003b
:102950007505070018c0b3006e019000fe019000dd
:10296000dd0407000000e00001003c000044eb0033
:102970000804e000160032002e019000be01900015
:102980000000200001f823008f04070018c0b300e6
:102990006e019000fe019000cd0407000000e000f1
:1029a000010035000044eb000804e000080032009c
:1029b0000000200001f82300008fbe00f108800015
:1029c000f0fc2f0000806000f008880091003700c4
:1029d0000e089000cf80de00fd0407000001be005d
:1029e0000000200001002400830507000004be0051
:1029f0002e019000be019000000020000110240074
:102a0000710407000001be000800be004605070073
:102a100018c0b3006e019000fe019000ae040700e4
:102a20000000e00001003c000044eb000804e0006e
:102a3000170032002e019000be019000000020001f
:102a4000011024006004070018c0b3006e0190005c
:102a5000fe0190009e0407000000e0000100350028
:102a60000044eb000804e0000900320000002000f0
:102a700001e02300008fbe00f1088000f0fc2f0071
:102a8000008060000040a000f0088800610037006e
:102a90000e089000cf80de00cd0407000001be00cc
:102aa0000000200001002400530507000004be00c0
:102ab0002e019000be01900000002000012824009b
:102ac000410407000001be000800be001605070013
:102ad00018c0b3006e019000fe0190007e04070054
:102ae0000000e00001003c000044eb000804e000ae
:102af000170032002e019000be019000000020005f
:102b0000012824003004070018c0b3006e019000b3
:102b1000fe0190006e0407000000e0000100350097
:102b20000044eb000804e00009003200000020002f
:102b300001c82300008fbe00f1088000f0fc2f00c8
:102b4000008060000050a000f008880031003700cd
:102b50000e089000cf80de009d0407000001be003b
:102b60000000200001002400230507000004be002f
:102b70002e019000be0190000000200001382400ca
:102b8000110407000001be000800be00e6040700b3
:102b900018c0b3006e019000fe0190004e040700c3
:102ba0000000e00001003c000044eb000804e000ed
:102bb000160032002e019000be019000000020009f
:102bc000013824000004070018c0b3006e01900013
:102bd000fe0190003e0407000000e0000100350007
:102be0000044eb000804e000080032000000200070
:102bf00001b82300008fbe00f10880000003200010
:102c000001007000f00888000200370010c0b30017
:102c1000250037008e08900000022000808f5000b1
:102c200015003a001e61a8001821ef001421ef00e2
:102c30002e019000be0190006e009000fe009000fa
:102c4000b90407001e01be00b704070045040700d1
:102c500040079800510798004e009000de00900059
:102c60004008de0000007800e00888004e00900078
:102c7000d00888000b0037001421ef002e019000cf
:102c8000be0190006e009000fe009000a6040700b8
:102c90001e01be00a40407003204070000007800f3
:102ca000d00888000040eb004f04be000080fa000e
:102cb000000006000000fa00f008800068006000d4
:102cc0000000e000040032003828ef003a28ef004e
:102cd0009780a800030037003428ef003628ef0063
:102ce0009760a8001fe1a8000080fa00000006001d
:102cf0000000fa00f0088000680060000000e000ba
:102d0000020032009780a900010037009760a900f7
:102d10001fe1a9000080fa00000006000000fa0090
:102d2000f0088000680060000000e000030032004e
:102d3000c0418000d141800002003700a0418000e6
:102d4000b14180000080fa00000006000c00fa008b
:102d5000881f780040079800510798000040220023
:102d600041a724002007980031079800f008800050
:102d7000680060000000e0000200320010c0b300f4
:102d8000ac0037002e019000be0190000000200032
:102d900001f823008c0307000200200003782400c0
:102da0006104070018c0b3004e019000de019000de
:102db000c90307000000e00001003c000044eb00f4
:102dc0000804e000160032002e019000be019000c1
:102dd0000000200001f823007b03070018c0b300a7
:102de0004e019000de019000b90307000000e000f2
:102df000010035000044eb000804e0000800320048
:102e00000000200001f82300008fbe0001098000af
:102e1000f0fc2f0000806000000988007900370076
:102e20002e019000be01900000002000011024003f
:102e30006503070002002000037824003a0407001d
:102e400018c0b3004e019000de019000a2030700fd
:102e50000000e00001003c000044eb000804e0003a
:102e6000170032002e019000be01900000002000eb
:102e7000011024005403070018c0b3004e01900055
:102e8000de019000920307000000e0000100350021
:102e90000044eb000804e0000900320000002000bc
:102ea00001e02300008fbe0001098000f0fc2f002c
:102eb000008060000040a000000988005100370039
:102ec0002e019000be019000000020000128240087
:102ed0003d030700020020000378240012040700cd
:102ee00018c0b3004e019000de0190007a03070085
:102ef0000000e00001003c000044eb000804e0009a
:102f0000170032002e019000be019000000020004a
:102f1000012824002c03070018c0b3004e019000c4
:102f2000de0190006a0307000000e00001003500a8
:102f30000044eb000804e00009003200000020001b
:102f400001c82300008fbe0001098000f0fc2f00a3
:102f5000008060000050a0000009880029003700b0
:102f60002e019000be0190000000200001382400d6
:102f7000150307000200200003782400ea0307007d
:102f800018c0b3004e019000de019000520307000c
:102f90000000e00001003c000044eb000804e000f9
:102fa000160032002e019000be01900000002000ab
:102fb000013824000403070018c0b3004e0190003c
:102fc000de019000420307000000e0000100350030
:102fd0000044eb000804e00008003200000020007c
:102fe00001b82300008fbe0001098000000320000b
:102ff00001007000000988000200370010c0b30013
:103000000c0037001821ef002e019000be01900047
:103010004e009000de009000c30307001e01be00ba
:10302000c10307004f03070000007800e008880094
:103030000040eb004f0478000080fa00000006001a
:103040000000fa003828ef003a28ef009780a80027
:1030500021e1a8000080fa00000006000000fa004c
:1030600021e1a9009780a9000080fa000000060075
:103070000000fa00c0418000d14180000080fa00c9
:1030800000000600809fbe00821f78000000fa004a
:10309000d0428000311180000141780001e9200018
:1030a00082707800d04280000000e800d0428800a2
:1030b0008560a9000080fa004f0178004f00be0033
:1030c000004006001000fa006007980071079800a1
:1030d0000040eb00004f78000040eb0010479800e4
:1030e0000040eb00204798000000eb00200798000c
:1030f00010002000300798000040220041b7240053
:1031000040079800510798002062a9001e407800ef
:1031100000c0ea00614060000080fb0061006000c8
:103120004b00dd000111800001b0a1000100700022
:10313000001188001e4090000080fb0061006000cc
:103140004500dd00011180000150a1000100700068
:10315000001188002e4090000004e00004003200be
:10316000001180006000b300001188000b003700e0
:103170002e00900000407800634060000080fb005b
:1031800063006000000040000211800091ff2f00ea
:103190008100610001007000001188003e00900075
:1031a000004078000040e900614060000080fb00c2
:1031b00061006000011180000100a10001007000a9
:1031c000001188006e009000fe00900000030700d0
:1031d0000001be004e009000de0090007a02070061
:1031e00002002000031824007702070002002000dc
:1031f00003f8230016020700da0207000000780037
:10320000401188009560a90021e2a8002342a8008f
:103210000080fa00000006001000fa002007980065
:1032200031079800024f9800134f9800244f9800e0
:1032300065079800760798000040220041a7240007
:10324000008fbe002062a8000e48900000c0ea0077
:10325000614060000080fb00610060004b00dd0009
:103260000111800001b0a100010070000011880070
:103270001e4890000080fb00610060004500dd00fa
:10328000011180000150a1000100700000118800b0
:103290002e4890000004e00004003200001180007d
:1032a0006000b300001188000b0037006e00900032
:1032b00000407800634060000080fb006300600015
:1032c000000040000211800091ff2f00810061008a
:1032d00001007000001188007e009000004078001e
:1032e0000040e900614060000080fb006100600078
:1032f000011180000100a100010070000011880090
:103300002e009000be009000b10207000001be0038
:103310001e00be002c02070002002000030824004b
:10332000290207000200200003f82300c80107005b
:103330008c02070000007800401188009560a90009
:1033400021e2a8002342a8000080fa000000060045
:103350000600fa00200798000000eb00000f78003c
:103360002e009000d3060700100798000c003700cd
:10337000000000001111800000202000008060008b
:103380000000e000fbff3a002e0090001e0040000d
:10339000104078000000fb00201188001e0fe8009c
:1033a0001e0090009e0f5000f1ff3e000080fa00ca
:1033b000000006000200fa00004f78000000000044
:1033c0001111800000202000008060000000e0005b
:1033d000fbff3a001e00fb00201188000080fa006d
:1033e000000006000000fa009560a8000080fa00c6
:1033f000000006000000fa009560a9000080fa00b5
:10340000000006000c00fa00300798004107980001
:10341000520798000000eb00000f78005e0090005b
:10342000a4060700100798004e009000a1060700b0
:10343000200798005a28ef0000e920008040eb00a8
:103440000148780010118000620060000000e00078
:10345000010032002222a900e2ff07002e009000a6
:103460000000e0002300320007003700d042800057
:10347000ae009000808f500003003d00d1428000dc
:103480002e009000008f5000ae0090001e017800ca
:1034900000e920000000410001017800ce0090000a
:1034a0008a0607000000e000f0ff3a00ae0090003e
:1034b0001e01780000e920000000410001017800b1
:1034c0008000780000e92000940607009e0090002c
:1034d0002e009000808f500004003d00ae00900050
:1034e0001e00900000805000010037000000eb003b
:1034f000000f7800ae009000d14288001e009000be
:103500000000e0001100320007003700d0428000c8
:103510009e009000808f500003003d00d14280004b
:103520001e009000008f50009e0090001e01780049
:1035300000e920000000410001017800de00900059
:10354000620607000000e000f0ff3a00a9ff070054
:1035500001e920003e00900050060700d0428000a4
:10356000be009000008040008040eb0001487800e1
:103570000080fa00000006001200fa0040079800e0
:10358000510798006207980073079800040f98008d
:1035900010c0b300204798000000eb00000f780037
:1035a0000e08900043060700200798007e00900058
:1035b00040060700300798005a28ef0000e9200075
:1035c0008040eb000148780010118000620060002c
:1035d0000000e000010032002222a90081ff070064
:1035e0004e009000de009000e00f5000e08f580089
:1035f0005c003200c6fa07003e0090000000e000c8
:103600002a00320007003700d0428000be00900040
:10361000808f500003003d00d14280003e009000aa
:10362000008f5000be0090001e01780000e92000cd
:103630000000410001017800fe0090002306070011
:103640000000e00007003200bdfa07000001be00e4
:103650004e009000de009000800f5100818f5900d5
:10366000e9ff3500be0090001e01780000e920004f
:1036700000004100010178008000780000e920008e
:1036800026060700ae0090003e009000808f50009c
:1036900004003d00be0090002e009000008050000d
:1036a000010037000000eb00000f7800be00900022
:1036b000d14288002e0090000000e0002700320078
:1036c0008e089000c0c42c00e40507000000e00054
:1036d00011003a000000000099fa07000001be0046
:1036e0004e009000de009000800f5100818f590045
:1036f000f9ff350019003700d0428000ae0090007d
:10370000808f500005003d00d14280002e009000c7
:10371000008f50000100370000000000ae00900054
:103720001e01780000e9200000004100010178003e
:103730008e089000e50507000000e0000700320059
:103740007ffa07000001be004e009000de009000ee
:10375000800f5100818f5900e7ff350073fa070091
:103760003c0037003e0090000000e00023003200e3
:1037700007003700d0428000be009000808f5000cc
:1037800003003d00d14280003e009000008f5000b9
:10379000be0090001e01780000e9200000004100fa
:1037a00001017800fe009000c80507000000e0005d
:1037b000f0ff3a00be0090001e01780000e92000f2
:1037c00000004100010178008000780000e920003d
:1037d000d2050700ae0090003e009000808f5000a0
:1037e00004003d00be0090002e00900000805000bc
:1037f000010037000000eb00000f7800be009000d1
:10380000d14288002e0090000000e000110032003c
:1038100007003700d0428000ae009000808f50003b
:1038200003003d00d14280002e009000008f500028
:10383000ae0090001e01780000e920000000410069
:10384000010178008e089000a00507000000e0004c
:10385000f0ff3a00e7fe070000e9200095050700a9
:10386000e10f500005003600d042800000017800d2
:1038700001e920006e009000a8050700d0428000fa
:10388000ee009000008040008040eb00014878008e
:103890002bfa07000001be0014c0b3004e009000d8
:1038a000de009000800f5100818f590001003d0023
:1038b0000042eb00244798002e4090000080fa0060
:1038c000000006000040da000000fe000a00fa00d6
:1038d00011002000b1bf9f00c0bf9f006a80570049
:1038e0006a0b07004fb897000080fa00000006003e
:1038f0000a00fa00e20f50001f003e00b08880006e
:10390000e10f5000060032008023200045232000f4
:1039100023232000042320000000e00004003a00dc
:1039200080222000452220002322200004222000a3
:10393000060028009403630002003a00070878009c
:10394000140a730013a8a30001003a0013a0a000fa
:1039500002007800050037001388a300feff320044
:103960003102fb00840a78000000e9000000e0005a
:10397000f9ff3a000800370033002000b3bf9f0072
:10398000c0bf9f00d1bf9f00e2bf9f006a80570069
:10399000400b07006fb99700020078000080fa0022
:1039a000000006000a00fa0051002000b1bf9f008d
:1039b000c0bf9f006a805700380b07005fb89700b0
:1039c0000080fa0000000600889fbe008004780096
:1039d000c08880000000e00004003a000e000700ec
:1039e0000084eb000000e00008003500c88880007b
:1039f0000900e0000500320009004400060007004d
:103a00000000e00001003d000084eb0008007800a9
:103a10004f04be0000000600800078000100e000b6
:103a200003003a0000002000c08888000000050064
:103a30000080eb0002002000828f500002003e0058
:103a4000c18888000000eb000000060000000500af
:103a500003f0a200889fbe008a9fbe008c1f7800e2
:103a600019010700200133006450e1004f003200cb
:103a70006420e1005200320003826c0007003b002a
:103a80000905d0000306d000820f54000c065d002b
:103a90000200390002003200890178000306780034
:103aa0008582550004003d000003fd008103fd00f8
:103ab0008502ea008b854200840f720002003b0001
:103ac00060001000e08018006011b8000005eb00f5
:103ad0007a28e1000a00390006007800c75ddd00a1
:103ae000f707b200878075002d00370082817100d2
:103af0000a017800610560008180d1000080d30058
:103b00008502e900f9ff3b00060440008784480075
:103b100002003b0060041400e0841c000988a3003c
:103b2000070032008a8171008281710061016400a6
:103b30008904d1000884d3008b05e8001700370002
:103b40000978a30013003a000b00e00013003400d2
:103b50008b05e9000804440089844c000a44740081
:103b60000978a3000d003a000b00e00007003400c4
:103b70008b05e9000804440089844c0001003a00e8
:103b80000b0020000978a300f7ff32000001eb00d2
:103b900002003700828171000a0178008f0007005f
:103ba0000cf0a70001f0a000d80037006420e1006d
:103bb00002003a00838f6c00d80033000801be0079
:103bc0000200be00d1003700889fbe008a9fbe0061
:103bd0008c1f7800bc000700c300330003866c0014
:103be0006450e1002e0032006420e1003300320016
:103bf0006150e1002f0032006120e100310032000d
:103c000085855500eb07b00009002000080420005e
:103c1000050037000804440089844c000a00310084
:103c20000603430087834b000001530081815b0042
:103c3000f8ff33000203be000800a000080444009f
:103c400089844c00f6ff3900c639dd00830173001a
:103c500001003200130020008904d1000884d30041
:103c60000998a300050032000800a7000300a00087
:103c70008904d1000884d3008b05e8008904d100b1
:103c80000884d3000001eb000281d200530007003a
:103c900001f0a1000cf0a70001f0a0009b0037008c
:103ca0006420e1009d0032000801be000200be0059
:103cb000f7ff37006120e100980032006000b80093
:103cc000f3ff37000000200001f82700f0ff370065
:103cd000140020006c033700f4ff2f006a03370044
:103ce0000001be00630007000470a70003f0a100fc
:103cf0006509b100160032000d0035006828e100aa
:103d000006003500f0ff2f00f1ff27000300e00060
:103d100013003b00010028000000050000004000e7
:103d2000818048008502e900fcff3a000800370066
:103d3000f88f420002003c008000eb00000005000c
:103d40008100d1000080d3008502e800fcff3a002a
:103d50000300e00002003b0060001000e08018005b
:103d6000000006000001be00420007000470a7002a
:103d700003f0a10003f8a30013003a006509b100a5
:103d800010003200090035006928e100020035000a
:103d9000010028000000050000004000818048006c
:103da0008502e900fcff3a0000000600f88f42009f
:103db000050035008100d1000080d3008502e800b5
:103dc000fcff3a00000006008000eb000000050048
:103dd0004f89de0082017800460337008100200011
:103de000618055000b003d000b00200061fe2f009c
:103df0000100e1001d003400828171006101640056
:103e00008904d1000884d3000000e800faff3a00da
:103e10007100200061006400030070000200600077
:103e20000900320061044400e0844c000988a500c8
:103e3000050032008b05e8006808e10002003a0046
:103e40008904d1000884d300f20f20000258e10059
:103e500005003d00c75ddd00f907b20089807500ef
:103e600008007800000006000bf827008b0078009f
:103e700000000500c70ade00f107b200f50fb2002e
:103e800008003200e1cf4200020032000170a000c1
:103e900024000500810f70000100320004080500b5
:103ea00044000500810f700002003a001400050074
:103eb0008502e9000000400081c04800fcff3b0093
:103ec0000170a000240005000004be00e9ff070007
:103ed0000003be000405be000200be00e5ff0700af
:103ee000844f7500000006000200be006450e1002f
:103ef000050036006420e100020036000968a300d6
:103f000001003a000800be000160a0004f067800e2
:103f10004f05be004f04be0000000600f0ff2f005a
:103f2000f1ff2700f9ff3700889fbe008a9fbe007f
:103f30008c1f7800e4ff0700ebff330003866c0062
:103f40006450e100240032006420e10027003200c8
:103f50006150e100220032006120e10021003200c6
:103f60008b854200eb07b1000134b800003ab8007d
:103f70000804420089844a00013ab8000030b800c1
:103f80008880400009014a0004003300000040001e
:103f900081804800020149008b05e900c909dd0064
:103fa000830170000100320013002000c814de00fd
:103fb0004814dd004709de001200b200c808de0028
:103fc0000884700085ff070001f0a1000cf0a70035
:103fd00001f0a000cdff37006120e100cfff3200eb
:103fe0000801be000200be00f7ff37006150e1008b
:103ff000fcff3a00c9ff37000c00fa00889fbe00a2
:104000008a9fbe008c9fbe00afff07000206be0065
:10401000840578000200be00020020007302070041
:1040200005003a008b02b300120020006f02070067
:1040300001003a00f8856d000c01be00c6000700c3
:104040000800be009b0032000b08a3009e003a004f
:104050000df0a7000be0a00009f0a7000bf0a000f6
:1040600009f0a1000801be00bb0007000bf0a6008c
:104070009500320001003c000bd0a0008acf7500f3
:10408000b20033006000b8006250e10099003900ce
:10409000a1003e000b28a300a2003a000bf8a300e9
:1040a000060032000b58a300a70032000801be0032
:1040b000a90007000800be00940032000800be00fe
:1040c000db0107000004be00050578000bf0a70027
:1040d0000b30a6000bf0a1005b079800324f2000c8
:1040e00053f32300fafe070005003d000800be0060
:1040f00012002000be0207000004be000a05e9000d
:104100004a0798006150b90031ff0700008fbe00d8
:104110000c01be0084ff0700f1fe07003007980085
:104120000100e00002003d0060001000e080180087
:10413000f2ff2700820f5000e08f580064003e001d
:104140000c00be00e6fe070020079800f2072000e2
:10415000820f5000e08f580005003c0012f82f003d
:10416000f3ff2f00820f5000838f580009003d009d
:104170000a00e0000300320001003c000201ea00f6
:10418000020578006000b800200798003a07980000
:10419000190037003e0090006100b9000cff0700d5
:1041a000809fbe000c00be004109dd004811de000a
:1041b0007208b1000d0207000005be001e01be001e
:1041c00059ff07004f01be0021fe0700809fbe007f
:1041d0000c00be000a01be001dfe07001e01be004d
:1041e00051ff07004f01be001afe07008221270081
:1041f00013f323004cff07000005be002e009000c3
:104200006100b900f2fe070001f0a2000c01be003f
:1042100010fe07000006be000800be009602070060
:104220000c01be0040ff07000a01be0009fe0700a6
:10423000809fbe004a0007002e0590000af0a700ec
:104240000a05ea00050037000800be000801be00ac
:1042500035ff07000004be000c00be000801be00d0
:104260000a00a70030ff07000006be000a05d100c3
:10427000f5ff3a005e01900002e0a600030037005f
:104280000001be00360007004ffe07000004be001c
:104290004f00be00730107000801be0022ff0700a7
:1042a0003e01900052020700de0590000bf0a700cf
:1042b00001f0a2004f06be004f05be004f04be0035
:1042c0000080fa000000060025000700f9ff370013
:1042d000270007006000b8000bd0a7000bc0a000ab
:1042e0000be0a7000bc0a2000bc0a70001f827003d
:1042f000f0ff37000df8a300020032001e00070097
:10430000190007000bf8a300eaff32000b30a700ea
:1043100001f0a200e7ff37000df8a300f9ff3a0013
:10432000f7ff37000801be000b000700e6ff320070
:1043300001003c000df0a2006000b8000df0a700e5
:1043400009000700dbff37000b000700f1ff270023
:10435000f0ff2f00d7ff3700010007005cfe370099
:1043600001f823000000050001f827000000050007
:10437000200220000100370010022000f0428800d7
:1043800000000600889fbe008a9fbe0030044200e5
:10439000b0844a0030054b0090854b006000b100ae
:1043a0000898be000a90be000440e10005c8e10084
:1043b00006d0e10007d8e1000200310068004000ab
:1043c0001008e8004f05be004f04be0000000600c4
:1043d000889fbe008a9fbe003004be002005be003c
:1043e0000418540005985c0006185d0007985d00ed
:1043f000110020000440e10005c8e10006d0e10002
:1044000007d8e100010039008000eb00108810009f
:104410004f05be004f04be00000006001200fa0067
:10442000889fbe008a9fbe008c9fbe00e0b79f00a1
:10443000f1b79f0082bf9f0093bf9f000605be009b
:104440000404be000000eb00d0b79f00c0b79f007f
:10445000b0b79f00a0b79f0090b79f000006eb0089
:104460005fb19700cfb09700820141003fb0970045
:104470000200e00004003d00370007007e80570086
:10448000c0ff070003003700330007007e8057009d
:10449000cfff0700dfb697000d00e0000c003500ed
:1044a0006fb29700ffb297000fbb97009fbb9700ba
:1044b00010002000010020006011b800000272000e
:1044c0008182720002037300838373001b00070064
:1044d0000c06e80001042000810f5600e0ff3a00be
:1044e0000d00e00004003d000802be000a03be000b
:1044f0007e805700a3ff07005fa897000000e00040
:1045000005003a001fb29700afb297003fb3970083
:10451000cfb39700090007006fb09700ffb0970076
:104520000fb997009fb997004f06be004f05be0018
:104530004f04be000080fa000000060001000700e2
:1045400000000600a4b79f00b5b79f00c6b79f0044
:10455000d7b79f00000006004f09de00828171007e
:10456000b3b79f004f01de00818040008280700061
:10457000a1b79f008fb097004f09de0000004000f8
:104580000200700090b79f007fa897004f01de00e7
:10459000818040008280700081b79f000d0007007d
:1045a0004f3ade000000400004007000f0af9f00b2
:1045b000080007000402420085824a0006034b00ff
:1045c00087834b00dfff07000802be000a03be001e
:1045d000000006002fb29700bfb297004fb39700bc
:1045e000dfb3970000000600881f78001800200045
:1045f000881f780089ff07008f87e9004f04780043
:1046000000000600801feb0084ff07008f87e90091
:1046100000000600889fbe008a9fbe00e00f500089
:10462000e08f5800e00f5900e08f59000c003d006a
:104630006044b8006055b8000000540081805c0000
:1046400002015d0083815d00180020001500070055
:1046500008003d00180007000004eb0005003700cb
:104660000004eb000f00070002003d0012000700ed
:1046700018002000dcff07000800e0000600320000
:104680006022b8006033b8000000520081805a00f8
:1046900002015b0083815b004f05be004f04be003a
:1046a00000000600e00f5200e08f5a00e00f5b00b0
:1046b000e08f5b00000006006044b8006055b80061
:1046c0000402540085825c0006035d0087835d0060
:1046d00000000600889fbe008a9fbe008c1f7800e5
:1046e000e00f5000e08f5800e00f5900e08f5900b4
:1046f0000d003d006044b8006055b8000000540053
:1047000081805c0002015d0083815d001c0020004f
:104710000820e10009a8e1000ab0e1000bb8e100bf
:104720000d003d00080037000006eb00e00f5200ce
:10473000e08f5a00e00f5b00e08f5b0006003d0059
:104740006044b8006055b8000402540085825c00e3
:1047500006035d0087835d00aaff07000c00e000f0
:10476000060032006022b8006033b800000052003a
:1047700081805a0002015b0083815b004f06780054
:104780004f05be004f04be0000000600889fbe001b
:104790008a9fbe008c1f78000006eb00e00f5000df
:1047a000e08f5800e00f5900e08f590007003d00ee
:1047b0006044b8006055b8000000540081805c007f
:1047c00002015d0083815d001c002000e00f5200ab
:1047d000e08f5a00e00f5b00e08f5b0007003d00b8
:1047e0006044b8006055b8000402540085825c0043
:1047f00006035d0087835d000c00a20075010700c1
:104800000c00e000060032006022b8006033b800ff
:104810000000520081805a0002015b0083815b002e
:104820004f0678004f05be004f04be000000060092
:104830000003be008ffd07006220e100020032008d
:104840000600be0005000500e507b100f107b20053
:1048500004f023008480700007f0a70001f0a0009e
:1048600024000500889fbe008a9fbe008c9fbe006a
:104870000004be007ffd07000800be006420e100c8
:1048800048003e005500320072212700132b2400ff
:1048900011fd070047003c000800be00c2ec2800e4
:1048a000e32c2c000afd0700470035000800be007d
:1048b00001f0a100020020000338230004fd0700de
:1048c000430035000800be00b2a32a0083fb23008a
:1048d00095fd07000200200003f0230001f0a7006f
:1048e00003f0a0005bfc0700fdfc07000005be0014
:1048f00037fd070001f0a2000006be0002002800fc
:1049000013f3230088fd07000801be0051fc0700d7
:10491000809fbe000c00be0032082800e3952b00eb
:1049200081fd07004f01be004afc07000006be00e3
:104930000001be007cfd0700809fbe0042412500b3
:1049400083b8230078fd07000200200003e823005d
:1049500040fc07000c01be0073fd07000006be000e
:104960004f00be00f2f92b00c3d423006efd0700f8
:104970000200200003f0230036fc07000c01be00fb
:1049800033fc07000001be000c00be008efc0700d7
:104990000200200003f023002efc07006101450007
:1049a000930007004f06be004f05be004f04be0037
:1049b0000000060001f8270000002000220220006d
:1049c000f2428800f7ff37006000b800fbff3700b5
:1049d00001f8230000002000f2ff370009f8a300cf
:1049e000f0ff32006000b800eeff3700889fbe0085
:1049f0008a9fbe000003be001efd070085057800eb
:104a000082815200020020006220e10004003a008e
:104a1000f307b100040035007718e1000400350009
:104a20000600be00140037006000b8000f00370019
:104a3000f50f2000faff2f008502d1000a85d30070
:104a40008301e900fcff3b008184620000046500f3
:104a5000890f7400f2ff32008582ea000a85ea00bd
:104a60008184620000046500dcfc070007f0a700f9
:104a700001f0a0000081eb000200e0004f05be0045
:104a80004f04be0000000600889fbe008a9fbe0043
:104a9000841f78000cfd07004f00780011003300e0
:104aa000f0ff2f00838f6c0006003b0004056500bb
:104ab0000a00a7000800370009f0a6001000200037
:104ac00008003700820f5400838f5c000300390018
:104ad0001000200001003e000000200009f0a700a7
:104ae0000000ea004f05be004f04be000000e000d9
:104af00000000600881f7800030478000300e0002f
:104b000007003d0060001000e080180060011900ff
:104b1000e081190002003b0001f02d000300370086
:104b20000400070008f0a70001f0a0004f0478007f
:104b300000000600889fbe008a9fbe0000827000b1
:104b40000402710004827100260032000004be00dd
:104b50000200be006011b8006b0920009502200021
:104b60000182cf000a0039000541b1000082cf0068
:104b7000070039000541b1000982cf000400390067
:104b80000541b1000882cf00010039000541b100a4
:104b900005425200120032000a003b00828171007f
:104ba000610164008100d1000080d3008984d300ba
:104bb0000884d3008b05e8000442e800f7ff3a00c0
:104bc000070037000804440089844c0000004800b6
:104bd000818048008b05e9000442e900f9ff3a00b2
:104be0007efc07004f05be004f04be00000006001b
:104bf0000003be009ffc07006220e10002003200bb
:104c00000600be000000060085024100e30f200000
:104c10000328e10005003c00a3fe2f000328e1006b
:104c200007003d000500200001003700f50f2000bf
:104c300020022000f04288006000b8000800370021
:104c4000130020008381520005003d008100d10047
:104c50000080d3008301e800fcff3a00050020003b
:104c6000c72add00f107b2008580700007f0a700b9
:104c700001f0a00000000600889fbe008a9fbe00d1
:104c80008c9fbe00eafe0700850478000005be0088
:104c90006420e10049003e006220e1000300320090
:104ca000090035000bf8a300440032000bf8a30004
:104cb0000800320010022000f0428800f0ff2f00b0
:104cc000f1ff27003d00370001f82f000000200011
:104cd0003a0037003d0007005dfb07000006be00fc
:104ce0000a00be00324f200053f32300fafb0700f6
:104cf000060034000c00be003400070054fb07001f
:104d00000006be000a00be00020037008904e90068
:104d10000c00be002d00070083fc07002b000700dd
:104d20004cfb07000001be000c00be00a6fb070004
:104d30000005be000001be007bfc07000006be00af
:104d4000a2f32300430d2c0042fb0700809fbe000e
:104d50000c00be00d2e32700d3f02b0072fc07004a
:104d60004f01be0098fb07000006be000a01be000e
:104d70006dfc07000a01be0036fb07000006be00fe
:104d80006148b90012fc07000005be003208280087
:104d9000e3952b0064fc07000c01be002dfb07000f
:104da0000006be000a00be000200280013f3230024
:104db0005dfc07000c01be0026fb07004f06be008d
:104dc0004f05be004f04be000000060003f02300a4
:104dd00002000500889fbe008a9fbe008c9fbe0017
:104de0000404b8000506b8008904460060854e003a
:104df0000606b8000a054600e0854e000706b80022
:104e00008b054600040eb800890446000a854e0052
:104e1000e0854d00050eb8000a0546008b854e0062
:104e2000060eb8008b0546000416b8000a054600b9
:104e30008b854e000516b8008b054600041eb80091
:104e40008b0546000800be000a01be004f06be00ea
:104e50004f05be004f04be000000060002003700f0
:104e60000204e0000b0032008101780000027800ab
:104e700030417800b14f5100f9ff3200100020009e
:104e800014427800934f5200030031000080eb0081
:104e9000000006000000eb000000060000017800a2
:104ea000b1417800035978000304e000fcff3a00a8
:104eb0000000060080007800010178003104e00065
:104ec000fdff3a0000005100000006000c00370012
:104ed000b0417800b1cf5100060032001000200030
:104ee0009542780094cf52000b0031000080eb0017
:104ef000000006000304e000060032000201e900a1
:104f000001027800800278000200e000f0ff3a0021
:104f1000000005000000eb000000060080017800a2
:104f200002003700845978000201e9000200e00025
:104f300006003200314278000404e000f9ff3a0034
:104f4000020037008059eb000201e9000200e00096
:104f5000fcff3a0000000600889fbe0000047800b5
:104f60000100780082047800880178000901780047
:104f700011002000de010700890f500001003200ff
:104f80000004eb00080078004f04be00000006009b
:104f90000000fa00e88157004fb997008104210012
:104fa000c07a2200180007000080fa000000060006
:104fb000881f780002047800080178002a020700a0
:104fc000080040004f047800000006000000fa00ce
:104fd000881f780000047800ea8157003fb99700e5
:104fe00088007800807d2200070007000000e000b4
:104ff000020035008040eb00017478004f04780017
:105000000080fa00000006006200fa00889fbe00df
:105010008a1f780000057800810478000204780077
:105020008300780080f92f000f0040005304070030
:105030009a979f00a9979f000000eb00b09f9f00e8
:105040001885fb008a04fb000a05ea004f55de00c4
:1050500050022000808f54000d003200e10f5500f7
:105060000b003a000a017800880078002f90970022
:105070009f91970003000100a0979f000000e000af
:105080008e0032003f9897000000e800b09f9f001c
:105090000a04440050022000808f540004003200b3
:1050a0000900e000e6ff3a003f98970084003700cf
:1050b0000000eb00909f9f00809f9f00f0979f0053
:1050c000e0979f00d0979f00c0979f000700370090
:1050d000811021000100500000004000c10f21009c
:1050e00061007800df98970001007000d09f9f005a
:1050f0008804780009047800384578008a00fb00ad
:1051000080102100df0107000000e000f0ff3a00fe
:10511000a1c2b300814f55000e003a00cf8897001e
:105120000180e900c08f9f0010007800c09f9f00a1
:105130000000e00005003d000000ea00c09f9f0065
:105140005f9897000020a000d09f9f000904e8000e
:105150000f003700c09f9f000000eb0005003700e4
:10516000f2ff2700820f5000020032006a01b900ee
:10517000028040000904780088047800b900fb0030
:105180000103b100e98f5000f5ff3600c09f9f007a
:10519000e0c2b300984f1000020032000080eb0024
:1051a00019003700a0c2b300d84f100007003a0022
:1051b000cf8897000180e900c08f9f001000780021
:1051c000a09f9f000804e800100037000000eb00db
:1051d000a09f9f008800780005003700f3ff27009c
:1051e000830f5000020032006a02b900040041003f
:1051f00001047800880078003101fb000203b1004f
:10520000e90f5100f5ff3600a09f9f0098447800f9
:105210008900fb00400f21009a0107000000e00018
:10522000020032000804e800010037008044eb006f
:10523000c97f9f0080c6b30080cf540004003a00ad
:1052400098cf14000a003a0066405000060037006c
:10525000c0c6b30080cf540005003a0098cf1400b8
:1052600003003a0065404000c07f9f000804e8004a
:105270001801fb00e3fb2f008f81410081f92f0013
:105280008f804000a0f92f000f00400010000700a1
:105290000000e00009003a00e1fb2f008f80400091
:1052a000a0f92f000f004000f80207000000e00006
:1052b000020035000804e80061ff37000080eb00c1
:1052c0004f0578004f04be000080fa000000060081
:1052d000881f7800e4c6b300844f5100b600320046
:1052e00010003c006b425200844f51001800320005
:1052f00005003c0054c2b300844f5100ee00320060
:1053000084c5b3000f00370044c6b300844f51007a
:105310001400320065424200844f5100e9003a0017
:105320001000370004c7b300844f5100d50032008d
:105330005300350065424200844f51005000320056
:1053400063424200844f5100de003a004c003700b7
:105350001181e90082087800f00090001241780085
:10536000d600370020629000c5c6b300854f5200ba
:1053700007003a00910278006482520084087800a5
:105380001402be004fabde00860378001100370028
:1053900015c7b300854f520003003200a5c6b30005
:1053a000854f520006003a00910278006882520050
:1053b000840878005403be004402be000500370094
:1053c0001182e9008408780014027800cfa2de0080
:1053d000612bb9000498be000690be00a06090004a
:1053e00088c6b30088cf50000d00320028c6b30035
:1053f00088cf500004003a000402fb00cfa2de0078
:10540000612bb9000800370048c7b30088cf5000af
:10541000030032006644440088cf500004003a0084
:10542000cfa2de00612bb9000498be000690be003a
:105430003002be002003be00f0009000e00f5200da
:10544000e08f5a00e00f5b00e08f5b0002003d0040
:10545000d4c2b30008003700001290000418a30063
:1054600002003200b4c2b300030037000408a300f6
:105470004c00320004c2b30084f1780047003700ca
:1054800020629000c5c6b300854f520006003a0066
:105490009102780064825200840878001402be00f1
:1054a0006033b8001100370015c7b300854f5200b4
:1054b00003003200a5c6b300854f520006003a0033
:1054c0009102780068825200840878005403be007c
:1054d0004402be00050037001182e900840878000c
:1054e000140278008002eb006033b8000498be001c
:1054f0000690be00a060900088c6b30088cf500020
:105500000d00320028c6b30088cf500004003a00d6
:105510000482fb008002eb006033b8000800370013
:1055200048c7b30088cf50000300320066444400ef
:1055300088cf500004003a008002eb006033b800ce
:105540000498be000690be00801090000138a300b1
:10555000140032003002be002003be00e00f5200f3
:10556000e08f5a00e00f5b00e08f5b000d0032001f
:1055700081c7b300814f51000300320081c5b300e1
:10558000814f510007003a00f000900004c3b300bf
:1055900084f178008100e80082f178008100e80061
:1055a00071009800f0009000818141006300980034
:1055b000824078003e003700a0619000c4c6b3006e
:1055c0001181e90084cf5100220032000a003c0022
:1055d0006442520084cf51002500320004c2e8002a
:1055e00084cf5100130032006842520084cf510032
:1055f0001e003a000a00370044c7b30084cf5100b0
:105600001b0032006642420084cf51001800320075
:105610006942520084cf510014003a00050037005f
:105620008208780092007800405890008048780006
:105630002c0037008208780092007800600a900001
:10564000cfa2de00612bb9008498be008690be0018
:1056500024003700820878009200780060099000ea
:10566000cf91de008288be001e0037001181e90064
:105670008208780092007800600890008008780026
